{
	"contractName": "SocialMedia",
	"abi": [
		{
			"inputs": [],
			"name": "articleCount",
			"outputs": [
				{
					"internalType": "uint256",
					"name": "",
					"type": "uint256"
				}
			],
			"stateMutability": "view",
			"type": "function",
			"constant": true
		},
		{
			"inputs": [
				{
					"internalType": "uint256",
					"name": "",
					"type": "uint256"
				}
			],
			"name": "articles",
			"outputs": [
				{
					"internalType": "string",
					"name": "username",
					"type": "string"
				},
				{
					"internalType": "string",
					"name": "title",
					"type": "string"
				},
				{
					"internalType": "string",
					"name": "content",
					"type": "string"
				},
				{
					"internalType": "address payable",
					"name": "author",
					"type": "address"
				},
				{
					"internalType": "uint256",
					"name": "timestamp",
					"type": "uint256"
				}
			],
			"stateMutability": "view",
			"type": "function",
			"constant": true
		},
		{
			"inputs": [],
			"name": "userCount",
			"outputs": [
				{
					"internalType": "uint256",
					"name": "",
					"type": "uint256"
				}
			],
			"stateMutability": "view",
			"type": "function",
			"constant": true
		},
		{
			"inputs": [
				{
					"internalType": "address",
					"name": "",
					"type": "address"
				}
			],
			"name": "users",
			"outputs": [
				{
					"internalType": "string",
					"name": "name",
					"type": "string"
				},
				{
					"internalType": "uint256",
					"name": "articleNum",
					"type": "uint256"
				}
			],
			"stateMutability": "view",
			"type": "function",
			"constant": true
		},
		{
			"inputs": [
				{
					"internalType": "string",
					"name": "_name",
					"type": "string"
				}
			],
			"name": "registerUser",
			"outputs": [],
			"stateMutability": "nonpayable",
			"type": "function"
		},
		{
			"inputs": [
				{
					"internalType": "string",
					"name": "_title",
					"type": "string"
				},
				{
					"internalType": "string",
					"name": "_content",
					"type": "string"
				},
				{
					"internalType": "uint256",
					"name": "_timestamp",
					"type": "uint256"
				}
			],
			"name": "publish",
			"outputs": [
				{
					"internalType": "uint256",
					"name": "articleId",
					"type": "uint256"
				}
			],
			"stateMutability": "nonpayable",
			"type": "function"
		},
		{
			"inputs": [
				{
					"internalType": "uint256",
					"name": "_articleId",
					"type": "uint256"
				},
				{
					"internalType": "string",
					"name": "_title",
					"type": "string"
				},
				{
					"internalType": "string",
					"name": "_content",
					"type": "string"
				}
			],
			"name": "setArticle",
			"outputs": [],
			"stateMutability": "nonpayable",
			"type": "function"
		},
		{
			"inputs": [
				{
					"internalType": "address",
					"name": "_address",
					"type": "address"
				}
			],
			"name": "getUserInfo",
			"outputs": [
				{
					"internalType": "string",
					"name": "username",
					"type": "string"
				},
				{
					"internalType": "uint256",
					"name": "articleNum",
					"type": "uint256"
				}
			],
			"stateMutability": "view",
			"type": "function",
			"constant": true
		},
		{
			"inputs": [
				{
					"internalType": "uint256",
					"name": "_articleId",
					"type": "uint256"
				}
			],
			"name": "getArticle",
			"outputs": [
				{
					"internalType": "string",
					"name": "username",
					"type": "string"
				},
				{
					"internalType": "string",
					"name": "title",
					"type": "string"
				},
				{
					"internalType": "string",
					"name": "content",
					"type": "string"
				},
				{
					"internalType": "address",
					"name": "author",
					"type": "address"
				},
				{
					"internalType": "uint256",
					"name": "timestamp",
					"type": "uint256"
				}
			],
			"stateMutability": "view",
			"type": "function",
			"constant": true
		},
		{
			"inputs": [],
			"name": "getAllArticles",
			"outputs": [
				{
					"internalType": "uint256[]",
					"name": "",
					"type": "uint256[]"
				}
			],
			"stateMutability": "view",
			"type": "function",
			"constant": true
		},
		{
			"inputs": [
				{
					"internalType": "uint256",
					"name": "_articleId",
					"type": "uint256"
				}
			],
			"name": "getArticleSummary",
			"outputs": [
				{
					"internalType": "string",
					"name": "title",
					"type": "string"
				},
				{
					"internalType": "address",
					"name": "author",
					"type": "address"
				},
				{
					"internalType": "uint256",
					"name": "timestamp",
					"type": "uint256"
				}
			],
			"stateMutability": "view",
			"type": "function",
			"constant": true
		}
	],
	"bytecode": "0x608060405234801561001057600080fd5b506119f1806100206000396000f3fe608060405234801561001057600080fd5b50600436106100a95760003560e01c8063704f1b9411610071578063704f1b94146101695780638b63d6a314610185578063a87430ba146101b5578063b44d310b146101e6578063bd85d86714610204578063edcfafe614610238576100a9565b806307973ccf146100ae578063414e28b0146100cc57806359929c1b146100ea578063607ea36d146101065780636386c1c714610138575b600080fd5b6100b661026c565b6040516100c39190610fd7565b60405180910390f35b6100d4610272565b6040516100e19190610fd7565b60405180910390f35b61010460048036038101906100ff9190611178565b610278565b005b610120600480360381019061011b9190611203565b61033d565b60405161012f939291906112f9565b60405180910390f35b610152600480360381019061014d9190611363565b610421565b604051610160929190611390565b60405180910390f35b610183600480360381019061017e91906113c0565b610505565b005b61019f600480360381019061019a9190611409565b61065a565b6040516101ac9190610fd7565b60405180910390f35b6101cf60048036038101906101ca9190611363565b61094e565b6040516101dd929190611390565b60405180910390f35b6101ee6109fa565b6040516101fb9190611552565b60405180910390f35b61021e60048036038101906102199190611203565b610a93565b60405161022f959493929190611574565b60405180910390f35b610252600480360381019061024d9190611203565b610ca0565b6040516102639594939291906115fd565b60405180910390f35b60015481565b60025481565b6003600084815260200190815260200160002060030160009054906101000a900473ffffffffffffffffffffffffffffffffffffffff1673ffffffffffffffffffffffffffffffffffffffff163373ffffffffffffffffffffffffffffffffffffffff1603610338578160036000858152602001908152602001600020600101908051906020019061030b929190610e8e565b5080600360008581526020019081526020016000206002019080519060200190610336929190610e8e565b505b505050565b60606000806000600360008681526020019081526020016000209050806001018160030160009054906101000a900473ffffffffffffffffffffffffffffffffffffffff16826004015482805461039390611694565b80601f01602080910402602001604051908101604052809291908181526020018280546103bf90611694565b801561040c5780601f106103e15761010080835404028352916020019161040c565b820191906000526020600020905b8154815290600101906020018083116103ef57829003601f168201915b50505050509250935093509350509193909250565b60606000806000808573ffffffffffffffffffffffffffffffffffffffff1673ffffffffffffffffffffffffffffffffffffffff168152602001908152602001600020905080600001816001015481805461047b90611694565b80601f01602080910402602001604051908101604052809291908181526020018280546104a790611694565b80156104f45780601f106104c9576101008083540402835291602001916104f4565b820191906000526020600020905b8154815290600101906020018083116104d757829003601f168201915b505050505091509250925050915091565b6000815111610549576040517f08c379a000000000000000000000000000000000000000000000000000000000815260040161054090611711565b60405180910390fd5b60008060003373ffffffffffffffffffffffffffffffffffffffff1673ffffffffffffffffffffffffffffffffffffffff168152602001908152602001600020600001805461059790611694565b9050146105d9576040517f08c379a00000000000000000000000000000000000000000000000000000000081526004016105d09061177d565b60405180910390fd5b60008060003373ffffffffffffffffffffffffffffffffffffffff1673ffffffffffffffffffffffffffffffffffffffff1681526020019081526020016000209050600081600101819055508181600001908051906020019061063d929190610e8e565b5060016000815480929190610651906117cc565b91905055505050565b60008084511161069f576040517f08c379a000000000000000000000000000000000000000000000000000000000815260040161069690611860565b60405180910390fd5b60008351116106e3576040517f08c379a00000000000000000000000000000000000000000000000000000000081526004016106da906118cc565b60405180910390fd5b60008060003373ffffffffffffffffffffffffffffffffffffffff1673ffffffffffffffffffffffffffffffffffffffff168152602001908152602001600020600001805461073190611694565b905011610773576040517f08c379a000000000000000000000000000000000000000000000000000000000815260040161076a90611938565b60405180910390fd5b6000600360006002600081548092919061078c906117cc565b91905055815260200190815260200160002090506000803373ffffffffffffffffffffffffffffffffffffffff1673ffffffffffffffffffffffffffffffffffffffff168152602001908152602001600020600001816000019080546107f190611694565b6107fc929190610f14565b5084816001019080519060200190610815929190610e8e565b508381600201908051906020019061082e929190610e8e565b50338160030160006101000a81548173ffffffffffffffffffffffffffffffffffffffff021916908373ffffffffffffffffffffffffffffffffffffffff160217905550828160040181905550600160025461088a9190611958565b6000803373ffffffffffffffffffffffffffffffffffffffff1673ffffffffffffffffffffffffffffffffffffffff16815260200190815260200160002060020160008060003373ffffffffffffffffffffffffffffffffffffffff1673ffffffffffffffffffffffffffffffffffffffff168152602001908152602001600020600101600081548092919061091f906117cc565b9190505581526020019081526020016000208190555060016002546109449190611958565b9150509392505050565b600060205280600052604060002060009150905080600001805461097190611694565b80601f016020809104026020016040519081016040528092919081815260200182805461099d90611694565b80156109ea5780601f106109bf576101008083540402835291602001916109ea565b820191906000526020600020905b8154815290600101906020018083116109cd57829003601f168201915b5050505050908060010154905082565b6060600060025467ffffffffffffffff811115610a1a57610a1961104d565b5b604051908082528060200260200182016040528015610a485781602001602082028036833780820191505090505b50905060005b600254811015610a8b5780828281518110610a6c57610a6b61198c565b5b6020026020010181815250508080610a83906117cc565b915050610a4e565b508091505090565b606080606060008060006003600088815260200190815260200160002090508060000181600101826002018360030160009054906101000a900473ffffffffffffffffffffffffffffffffffffffff168460040154848054610af490611694565b80601f0160208091040260200160405190810160405280929190818152602001828054610b2090611694565b8015610b6d5780601f10610b4257610100808354040283529160200191610b6d565b820191906000526020600020905b815481529060010190602001808311610b5057829003601f168201915b50505050509450838054610b8090611694565b80601f0160208091040260200160405190810160405280929190818152602001828054610bac90611694565b8015610bf95780601f10610bce57610100808354040283529160200191610bf9565b820191906000526020600020905b815481529060010190602001808311610bdc57829003601f168201915b50505050509350828054610c0c90611694565b80601f0160208091040260200160405190810160405280929190818152602001828054610c3890611694565b8015610c855780601f10610c5a57610100808354040283529160200191610c85565b820191906000526020600020905b815481529060010190602001808311610c6857829003601f168201915b50505050509250955095509550955095505091939590929450565b6003602052806000526040600020600091509050806000018054610cc390611694565b80601f0160208091040260200160405190810160405280929190818152602001828054610cef90611694565b8015610d3c5780601f10610d1157610100808354040283529160200191610d3c565b820191906000526020600020905b815481529060010190602001808311610d1f57829003601f168201915b505050505090806001018054610d5190611694565b80601f0160208091040260200160405190810160405280929190818152602001828054610d7d90611694565b8015610dca5780601f10610d9f57610100808354040283529160200191610dca565b820191906000526020600020905b815481529060010190602001808311610dad57829003601f168201915b505050505090806002018054610ddf90611694565b80601f0160208091040260200160405190810160405280929190818152602001828054610e0b90611694565b8015610e585780601f10610e2d57610100808354040283529160200191610e58565b820191906000526020600020905b815481529060010190602001808311610e3b57829003601f168201915b5050505050908060030160009054906101000a900473ffffffffffffffffffffffffffffffffffffffff16908060040154905085565b828054610e9a90611694565b90600052602060002090601f016020900481019282610ebc5760008555610f03565b82601f10610ed557805160ff1916838001178555610f03565b82800160010185558215610f03579182015b82811115610f02578251825591602001919060010190610ee7565b5b509050610f109190610fa1565b5090565b828054610f2090611694565b90600052602060002090601f016020900481019282610f425760008555610f90565b82601f10610f535780548555610f90565b82800160010185558215610f9057600052602060002091601f016020900482015b82811115610f8f578254825591600101919060010190610f74565b5b509050610f9d9190610fa1565b5090565b5b80821115610fba576000816000905550600101610fa2565b5090565b6000819050919050565b610fd181610fbe565b82525050565b6000602082019050610fec6000830184610fc8565b92915050565b6000604051905090565b600080fd5b600080fd5b61100f81610fbe565b811461101a57600080fd5b50565b60008135905061102c81611006565b92915050565b600080fd5b600080fd5b6000601f19601f8301169050919050565b7f4e487b7100000000000000000000000000000000000000000000000000000000600052604160045260246000fd5b6110858261103c565b810181811067ffffffffffffffff821117156110a4576110a361104d565b5b80604052505050565b60006110b7610ff2565b90506110c3828261107c565b919050565b600067ffffffffffffffff8211156110e3576110e261104d565b5b6110ec8261103c565b9050602081019050919050565b82818337600083830152505050565b600061111b611116846110c8565b6110ad565b90508281526020810184848401111561113757611136611037565b5b6111428482856110f9565b509392505050565b600082601f83011261115f5761115e611032565b5b813561116f848260208601611108565b91505092915050565b60008060006060848603121561119157611190610ffc565b5b600061119f8682870161101d565b935050602084013567ffffffffffffffff8111156111c0576111bf611001565b5b6111cc8682870161114a565b925050604084013567ffffffffffffffff8111156111ed576111ec611001565b5b6111f98682870161114a565b9150509250925092565b60006020828403121561121957611218610ffc565b5b60006112278482850161101d565b91505092915050565b600081519050919050565b600082825260208201905092915050565b60005b8381101561126a57808201518184015260208101905061124f565b83811115611279576000848401525b50505050565b600061128a82611230565b611294818561123b565b93506112a481856020860161124c565b6112ad8161103c565b840191505092915050565b600073ffffffffffffffffffffffffffffffffffffffff82169050919050565b60006112e3826112b8565b9050919050565b6112f3816112d8565b82525050565b60006060820190508181036000830152611313818661127f565b905061132260208301856112ea565b61132f6040830184610fc8565b949350505050565b611340816112d8565b811461134b57600080fd5b50565b60008135905061135d81611337565b92915050565b60006020828403121561137957611378610ffc565b5b60006113878482850161134e565b91505092915050565b600060408201905081810360008301526113aa818561127f565b90506113b96020830184610fc8565b9392505050565b6000602082840312156113d6576113d5610ffc565b5b600082013567ffffffffffffffff8111156113f4576113f3611001565b5b6114008482850161114a565b91505092915050565b60008060006060848603121561142257611421610ffc565b5b600084013567ffffffffffffffff8111156114405761143f611001565b5b61144c8682870161114a565b935050602084013567ffffffffffffffff81111561146d5761146c611001565b5b6114798682870161114a565b925050604061148a8682870161101d565b9150509250925092565b600081519050919050565b600082825260208201905092915050565b6000819050602082019050919050565b6114c981610fbe565b82525050565b60006114db83836114c0565b60208301905092915050565b6000602082019050919050565b60006114ff82611494565b611509818561149f565b9350611514836114b0565b8060005b8381101561154557815161152c88826114cf565b9750611537836114e7565b925050600181019050611518565b5085935050505092915050565b6000602082019050818103600083015261156c81846114f4565b905092915050565b600060a082019050818103600083015261158e818861127f565b905081810360208301526115a2818761127f565b905081810360408301526115b6818661127f565b90506115c560608301856112ea565b6115d26080830184610fc8565b9695505050505050565b60006115e7826112b8565b9050919050565b6115f7816115dc565b82525050565b600060a0820190508181036000830152611617818861127f565b9050818103602083015261162b818761127f565b9050818103604083015261163f818661127f565b905061164e60608301856115ee565b61165b6080830184610fc8565b9695505050505050565b7f4e487b7100000000000000000000000000000000000000000000000000000000600052602260045260246000fd5b600060028204905060018216806116ac57607f821691505b6020821081036116bf576116be611665565b5b50919050565b7f4e616d652063616e6e6f7420626520656d707479000000000000000000000000600082015250565b60006116fb60148361123b565b9150611706826116c5565b602082019050919050565b6000602082019050818103600083015261172a816116ee565b9050919050565b7f5573657220616c72656164792072656769737465726564000000000000000000600082015250565b600061176760178361123b565b915061177282611731565b602082019050919050565b600060208201905081810360008301526117968161175a565b9050919050565b7f4e487b7100000000000000000000000000000000000000000000000000000000600052601160045260246000fd5b60006117d782610fbe565b91507fffffffffffffffffffffffffffffffffffffffffffffffffffffffffffffffff82036118095761180861179d565b5b600182019050919050565b7f5469746c652063616e6e6f7420626520656d7074790000000000000000000000600082015250565b600061184a60158361123b565b915061185582611814565b602082019050919050565b600060208201905081810360008301526118798161183d565b9050919050565b7f436f6e74656e742063616e6e6f7420626520656d707479000000000000000000600082015250565b60006118b660178361123b565b91506118c182611880565b602082019050919050565b600060208201905081810360008301526118e5816118a9565b9050919050565b7f55736572206d7573742062652072656769737465726564000000000000000000600082015250565b600061192260178361123b565b915061192d826118ec565b602082019050919050565b6000602082019050818103600083015261195181611915565b9050919050565b600061196382610fbe565b915061196e83610fbe565b9250828210156119815761198061179d565b5b828203905092915050565b7f4e487b7100000000000000000000000000000000000000000000000000000000600052603260045260246000fdfea2646970667358221220bed8f31290ccf45239ceeee7feab9581810f48f1526dab556a61af06f15fff7064736f6c634300080d0033",
	"immutableReferences": {},
	"source": "// SPDX-License-Identifier: MIT\r\npragma solidity >=0.8.0 <0.9.0;\r\n\r\ncontract SocialMedia {\r\n    struct User {\r\n        string name;\r\n        uint256 articleNum;\r\n        mapping(uint256 => uint256) articles;\r\n    }\r\n    mapping(address => User) public users;\r\n    uint256 public userCount;\r\n\r\n    struct Article {\r\n        string username;\r\n        string title;\r\n        string content;\r\n        address payable author;\r\n        uint256 timestamp;\r\n        // uint commentsNum;\r\n        mapping(uint256 => Comment) comments;\r\n    }\r\n\r\n    uint256 public articleCount;\r\n    mapping(uint256 => Article) public articles;\r\n\r\n    struct Comment {\r\n        string content;\r\n        address author;\r\n    }\r\n\r\n    function registerUser(string memory _name) public {\r\n        require(bytes(_name).length > 0, \"Name cannot be empty\");\r\n        require(bytes(users[msg.sender].name).length == 0, \"User already registered\");\r\n        User storage newUser = users[msg.sender];\r\n\r\n        newUser.articleNum = 0;\r\n        newUser.name = _name; \r\n        userCount++;\r\n    }\r\n\r\n    function publish(\r\n        // string memory _username, // \r\n        string memory _title,\r\n        string memory _content,\r\n        uint256 _timestamp\r\n    ) public returns (uint256 articleId) {\r\n        // require(bytes(_username).length > 0, \"Username cannot be empty\");\r\n        require(bytes(_title).length > 0, \"Title cannot be empty\");\r\n        require(bytes(_content).length > 0, \"Content cannot be empty\");\r\n        require(bytes(users[msg.sender].name).length > 0, \"User must be registered\");\r\n\r\n        //  Article \r\n        Article storage newArticle = articles[articleCount++];\r\n        \r\n        //  Article \r\n        newArticle.username = users[msg.sender].name; // \r\n        newArticle.title = _title;\r\n        newArticle.content = _content;\r\n        newArticle.author = payable(msg.sender);\r\n        newArticle.timestamp = _timestamp; //  timestamp \r\n\r\n        // \r\n        users[msg.sender].articles[users[msg.sender].articleNum++] = articleCount - 1;\r\n\r\n        //  ID\r\n        return articleCount - 1;\r\n    }\r\n\r\n    function setArticle(\r\n        uint256 _articleId,\r\n        string memory _title,\r\n        string memory _content\r\n    ) public {\r\n        if (msg.sender != articles[_articleId].author) return;\r\n        articles[_articleId].title = _title;\r\n        articles[_articleId].content = _content;\r\n    }\r\n\r\n    function getUserInfo(address _address) \r\n        public \r\n        view \r\n        returns (\r\n            string memory username, \r\n            uint256 articleNum) \r\n    {\r\n        User storage _user = users[_address];\r\n        return (_user.name, _user.articleNum);\r\n    }\r\n\r\n    function getArticle(uint256 _articleId)\r\n        public\r\n        view\r\n        returns (\r\n            string memory username,\r\n            string memory title,\r\n            string memory content,\r\n            address author,\r\n            uint256 timestamp\r\n        )\r\n    {\r\n        \r\n        Article storage _article = articles[_articleId];\r\n        return (\r\n            _article.username,\r\n            _article.title,\r\n            _article.content,\r\n            _article.author,\r\n            _article.timestamp\r\n        );\r\n        \r\n    }\r\n\r\n    function getAllArticles() public view returns (uint256[] memory) {\r\n        uint256[] memory articleIds = new uint256[](articleCount);\r\n        for (uint256 i = 0; i < articleCount; i++) {\r\n            articleIds[i] = i;\r\n        }\r\n        return articleIds;\r\n    }\r\n\r\n    function getArticleSummary(uint256 _articleId)\r\n        public\r\n        view\r\n        returns (\r\n            string memory title,\r\n            address author,\r\n            uint256 timestamp\r\n        )\r\n    {\r\n        Article storage _article = articles[_articleId];\r\n        return (_article.title, _article.author, _article.timestamp);\r\n    } \r\n}\r\n",
	"sourcePath": "C:\\PF\\Web3\\truffle\\socialTruffle\\contracts\\SocialMedia.sol",
	"compiler": {
		"name": "solc",
		"version": "0.8.13+commit.abaa5c0e.Emscripten.clang"
	},
	"schemaVersion": "3.4.16",
	"updatedAt": "2024-05-02T09:33:33.191Z",
	"networkType": "ethereum",
	"devdoc": {
		"kind": "dev",
		"methods": {},
		"version": 1
	},
	"userdoc": {
		"kind": "user",
		"methods": {},
		"version": 1
	}
}