{
	"contractName": "SocialMedia",
	"abi": [
		{
			"inputs": [],
			"name": "articleCount",
			"outputs": [
				{
					"internalType": "uint256",
					"name": "",
					"type": "uint256"
				}
			],
			"stateMutability": "view",
			"type": "function",
			"constant": true
		},
		{
			"inputs": [
				{
					"internalType": "uint256",
					"name": "",
					"type": "uint256"
				}
			],
			"name": "articleTransactionHashes",
			"outputs": [
				{
					"internalType": "bytes32",
					"name": "",
					"type": "bytes32"
				}
			],
			"stateMutability": "view",
			"type": "function",
			"constant": true
		},
		{
			"inputs": [
				{
					"internalType": "uint256",
					"name": "",
					"type": "uint256"
				}
			],
			"name": "articles",
			"outputs": [
				{
					"internalType": "string",
					"name": "username",
					"type": "string"
				},
				{
					"internalType": "string",
					"name": "title",
					"type": "string"
				},
				{
					"internalType": "string",
					"name": "content",
					"type": "string"
				},
				{
					"internalType": "address payable",
					"name": "author",
					"type": "address"
				},
				{
					"internalType": "uint256",
					"name": "timestamp",
					"type": "uint256"
				}
			],
			"stateMutability": "view",
			"type": "function",
			"constant": true
		},
		{
			"inputs": [],
			"name": "userCount",
			"outputs": [
				{
					"internalType": "uint256",
					"name": "",
					"type": "uint256"
				}
			],
			"stateMutability": "view",
			"type": "function",
			"constant": true
		},
		{
			"inputs": [
				{
					"internalType": "address",
					"name": "",
					"type": "address"
				}
			],
			"name": "users",
			"outputs": [
				{
					"internalType": "string",
					"name": "name",
					"type": "string"
				},
				{
					"internalType": "uint256",
					"name": "articleNum",
					"type": "uint256"
				}
			],
			"stateMutability": "view",
			"type": "function",
			"constant": true
		},
		{
			"inputs": [
				{
					"internalType": "string",
					"name": "_name",
					"type": "string"
				}
			],
			"name": "registerUser",
			"outputs": [],
			"stateMutability": "nonpayable",
			"type": "function"
		},
		{
			"inputs": [
				{
					"internalType": "string",
					"name": "_title",
					"type": "string"
				},
				{
					"internalType": "string",
					"name": "_content",
					"type": "string"
				},
				{
					"internalType": "uint256",
					"name": "_timestamp",
					"type": "uint256"
				}
			],
			"name": "publish",
			"outputs": [
				{
					"internalType": "uint256",
					"name": "articleId",
					"type": "uint256"
				}
			],
			"stateMutability": "nonpayable",
			"type": "function"
		},
		{
			"inputs": [
				{
					"internalType": "uint256",
					"name": "_articleId",
					"type": "uint256"
				},
				{
					"internalType": "string",
					"name": "_title",
					"type": "string"
				},
				{
					"internalType": "string",
					"name": "_content",
					"type": "string"
				}
			],
			"name": "setArticle",
			"outputs": [],
			"stateMutability": "nonpayable",
			"type": "function"
		},
		{
			"inputs": [
				{
					"internalType": "address",
					"name": "_address",
					"type": "address"
				}
			],
			"name": "getUserInfo",
			"outputs": [
				{
					"internalType": "string",
					"name": "username",
					"type": "string"
				},
				{
					"internalType": "uint256",
					"name": "articleNum",
					"type": "uint256"
				}
			],
			"stateMutability": "view",
			"type": "function",
			"constant": true
		},
		{
			"inputs": [
				{
					"internalType": "uint256",
					"name": "_articleId",
					"type": "uint256"
				}
			],
			"name": "getArticle",
			"outputs": [
				{
					"internalType": "string",
					"name": "username",
					"type": "string"
				},
				{
					"internalType": "string",
					"name": "title",
					"type": "string"
				},
				{
					"internalType": "string",
					"name": "content",
					"type": "string"
				},
				{
					"internalType": "address",
					"name": "author",
					"type": "address"
				},
				{
					"internalType": "uint256",
					"name": "timestamp",
					"type": "uint256"
				}
			],
			"stateMutability": "view",
			"type": "function",
			"constant": true
		},
		{
			"inputs": [],
			"name": "getAllArticles",
			"outputs": [
				{
					"internalType": "uint256[]",
					"name": "",
					"type": "uint256[]"
				}
			],
			"stateMutability": "view",
			"type": "function",
			"constant": true
		},
		{
			"inputs": [
				{
					"internalType": "uint256",
					"name": "_articleId",
					"type": "uint256"
				}
			],
			"name": "getArticleSummary",
			"outputs": [
				{
					"internalType": "string",
					"name": "title",
					"type": "string"
				},
				{
					"internalType": "address",
					"name": "author",
					"type": "address"
				},
				{
					"internalType": "uint256",
					"name": "timestamp",
					"type": "uint256"
				}
			],
			"stateMutability": "view",
			"type": "function",
			"constant": true
		}
	],
	"bytecode": "0x608060405234801561001057600080fd5b50611bbb806100206000396000f3fe608060405234801561001057600080fd5b50600436106100b45760003560e01c80638b63d6a3116100715780638b63d6a314610190578063a87430ba146101c0578063b44d310b146101f1578063bd85d8671461020f578063e5ebf60814610243578063edcfafe614610273576100b4565b806307973ccf146100b9578063414e28b0146100d757806359929c1b146100f5578063607ea36d146101115780636386c1c714610143578063704f1b9414610174575b600080fd5b6100c16102a7565b6040516100ce9190611082565b60405180910390f35b6100df6102ad565b6040516100ec9190611082565b60405180910390f35b61010f600480360381019061010a9190611223565b6102b3565b005b61012b600480360381019061012691906112ae565b610378565b60405161013a939291906113a4565b60405180910390f35b61015d6004803603810190610158919061140e565b61045c565b60405161016b92919061143b565b60405180910390f35b61018e6004803603810190610189919061146b565b610540565b005b6101aa60048036038101906101a591906114b4565b610695565b6040516101b79190611082565b60405180910390f35b6101da60048036038101906101d5919061140e565b6109e1565b6040516101e892919061143b565b60405180910390f35b6101f9610a8d565b60405161020691906115fd565b60405180910390f35b610229600480360381019061022491906112ae565b610b26565b60405161023a95949392919061161f565b60405180910390f35b61025d600480360381019061025891906112ae565b610d33565b60405161026a91906116a0565b60405180910390f35b61028d600480360381019061028891906112ae565b610d4b565b60405161029e9594939291906116dc565b60405180910390f35b60015481565b60025481565b6003600084815260200190815260200160002060030160009054906101000a900473ffffffffffffffffffffffffffffffffffffffff1673ffffffffffffffffffffffffffffffffffffffff163373ffffffffffffffffffffffffffffffffffffffff16036103735781600360008581526020019081526020016000206001019080519060200190610346929190610f39565b5080600360008581526020019081526020016000206002019080519060200190610371929190610f39565b505b505050565b60606000806000600360008681526020019081526020016000209050806001018160030160009054906101000a900473ffffffffffffffffffffffffffffffffffffffff1682600401548280546103ce90611773565b80601f01602080910402602001604051908101604052809291908181526020018280546103fa90611773565b80156104475780601f1061041c57610100808354040283529160200191610447565b820191906000526020600020905b81548152906001019060200180831161042a57829003601f168201915b50505050509250935093509350509193909250565b60606000806000808573ffffffffffffffffffffffffffffffffffffffff1673ffffffffffffffffffffffffffffffffffffffff16815260200190815260200160002090508060000181600101548180546104b690611773565b80601f01602080910402602001604051908101604052809291908181526020018280546104e290611773565b801561052f5780601f106105045761010080835404028352916020019161052f565b820191906000526020600020905b81548152906001019060200180831161051257829003601f168201915b505050505091509250925050915091565b6000815111610584576040517f08c379a000000000000000000000000000000000000000000000000000000000815260040161057b906117f0565b60405180910390fd5b60008060003373ffffffffffffffffffffffffffffffffffffffff1673ffffffffffffffffffffffffffffffffffffffff16815260200190815260200160002060000180546105d290611773565b905014610614576040517f08c379a000000000000000000000000000000000000000000000000000000000815260040161060b9061185c565b60405180910390fd5b60008060003373ffffffffffffffffffffffffffffffffffffffff1673ffffffffffffffffffffffffffffffffffffffff16815260200190815260200160002090506000816001018190555081816000019080519060200190610678929190610f39565b506001600081548092919061068c906118ab565b91905055505050565b6000808451116106da576040517f08c379a00000000000000000000000000000000000000000000000000000000081526004016106d19061193f565b60405180910390fd5b600083511161071e576040517f08c379a0000000000000000000000000000000000000000000000000000000008152600401610715906119ab565b60405180910390fd5b60008060003373ffffffffffffffffffffffffffffffffffffffff1673ffffffffffffffffffffffffffffffffffffffff168152602001908152602001600020600001805461076c90611773565b9050116107ae576040517f08c379a00000000000000000000000000000000000000000000000000000000081526004016107a590611a17565b60405180910390fd5b600060036000600260008154809291906107c7906118ab565b91905055815260200190815260200160002090506000803373ffffffffffffffffffffffffffffffffffffffff1673ffffffffffffffffffffffffffffffffffffffff1681526020019081526020016000206000018160000190805461082c90611773565b610837929190610fbf565b5084816001019080519060200190610850929190610f39565b5083816002019080519060200190610869929190610f39565b50338160030160006101000a81548173ffffffffffffffffffffffffffffffffffffffff021916908373ffffffffffffffffffffffffffffffffffffffff16021790555082816004018190555060016002546108c59190611a37565b6000803373ffffffffffffffffffffffffffffffffffffffff1673ffffffffffffffffffffffffffffffffffffffff16815260200190815260200160002060020160008060003373ffffffffffffffffffffffffffffffffffffffff1673ffffffffffffffffffffffffffffffffffffffff168152602001908152602001600020600101600081548092919061095a906118ab565b919050558152602001908152602001600020819055506000338686866040516020016109899493929190611b10565b604051602081830303815290604052805190602001209050806004600060016002546109b59190611a37565b81526020019081526020016000208190555060016002546109d69190611a37565b925050509392505050565b6000602052806000526040600020600091509050806000018054610a0490611773565b80601f0160208091040260200160405190810160405280929190818152602001828054610a3090611773565b8015610a7d5780601f10610a5257610100808354040283529160200191610a7d565b820191906000526020600020905b815481529060010190602001808311610a6057829003601f168201915b5050505050908060010154905082565b6060600060025467ffffffffffffffff811115610aad57610aac6110f8565b5b604051908082528060200260200182016040528015610adb5781602001602082028036833780820191505090505b50905060005b600254811015610b1e5780828281518110610aff57610afe611b56565b5b6020026020010181815250508080610b16906118ab565b915050610ae1565b508091505090565b606080606060008060006003600088815260200190815260200160002090508060000181600101826002018360030160009054906101000a900473ffffffffffffffffffffffffffffffffffffffff168460040154848054610b8790611773565b80601f0160208091040260200160405190810160405280929190818152602001828054610bb390611773565b8015610c005780601f10610bd557610100808354040283529160200191610c00565b820191906000526020600020905b815481529060010190602001808311610be357829003601f168201915b50505050509450838054610c1390611773565b80601f0160208091040260200160405190810160405280929190818152602001828054610c3f90611773565b8015610c8c5780601f10610c6157610100808354040283529160200191610c8c565b820191906000526020600020905b815481529060010190602001808311610c6f57829003601f168201915b50505050509350828054610c9f90611773565b80601f0160208091040260200160405190810160405280929190818152602001828054610ccb90611773565b8015610d185780601f10610ced57610100808354040283529160200191610d18565b820191906000526020600020905b815481529060010190602001808311610cfb57829003601f168201915b50505050509250955095509550955095505091939590929450565b60046020528060005260406000206000915090505481565b6003602052806000526040600020600091509050806000018054610d6e90611773565b80601f0160208091040260200160405190810160405280929190818152602001828054610d9a90611773565b8015610de75780601f10610dbc57610100808354040283529160200191610de7565b820191906000526020600020905b815481529060010190602001808311610dca57829003601f168201915b505050505090806001018054610dfc90611773565b80601f0160208091040260200160405190810160405280929190818152602001828054610e2890611773565b8015610e755780601f10610e4a57610100808354040283529160200191610e75565b820191906000526020600020905b815481529060010190602001808311610e5857829003601f168201915b505050505090806002018054610e8a90611773565b80601f0160208091040260200160405190810160405280929190818152602001828054610eb690611773565b8015610f035780601f10610ed857610100808354040283529160200191610f03565b820191906000526020600020905b815481529060010190602001808311610ee657829003601f168201915b5050505050908060030160009054906101000a900473ffffffffffffffffffffffffffffffffffffffff16908060040154905085565b828054610f4590611773565b90600052602060002090601f016020900481019282610f675760008555610fae565b82601f10610f8057805160ff1916838001178555610fae565b82800160010185558215610fae579182015b82811115610fad578251825591602001919060010190610f92565b5b509050610fbb919061104c565b5090565b828054610fcb90611773565b90600052602060002090601f016020900481019282610fed576000855561103b565b82601f10610ffe578054855561103b565b8280016001018555821561103b57600052602060002091601f016020900482015b8281111561103a57825482559160010191906001019061101f565b5b509050611048919061104c565b5090565b5b8082111561106557600081600090555060010161104d565b5090565b6000819050919050565b61107c81611069565b82525050565b60006020820190506110976000830184611073565b92915050565b6000604051905090565b600080fd5b600080fd5b6110ba81611069565b81146110c557600080fd5b50565b6000813590506110d7816110b1565b92915050565b600080fd5b600080fd5b6000601f19601f8301169050919050565b7f4e487b7100000000000000000000000000000000000000000000000000000000600052604160045260246000fd5b611130826110e7565b810181811067ffffffffffffffff8211171561114f5761114e6110f8565b5b80604052505050565b600061116261109d565b905061116e8282611127565b919050565b600067ffffffffffffffff82111561118e5761118d6110f8565b5b611197826110e7565b9050602081019050919050565b82818337600083830152505050565b60006111c66111c184611173565b611158565b9050828152602081018484840111156111e2576111e16110e2565b5b6111ed8482856111a4565b509392505050565b600082601f83011261120a576112096110dd565b5b813561121a8482602086016111b3565b91505092915050565b60008060006060848603121561123c5761123b6110a7565b5b600061124a868287016110c8565b935050602084013567ffffffffffffffff81111561126b5761126a6110ac565b5b611277868287016111f5565b925050604084013567ffffffffffffffff811115611298576112976110ac565b5b6112a4868287016111f5565b9150509250925092565b6000602082840312156112c4576112c36110a7565b5b60006112d2848285016110c8565b91505092915050565b600081519050919050565b600082825260208201905092915050565b60005b838110156113155780820151818401526020810190506112fa565b83811115611324576000848401525b50505050565b6000611335826112db565b61133f81856112e6565b935061134f8185602086016112f7565b611358816110e7565b840191505092915050565b600073ffffffffffffffffffffffffffffffffffffffff82169050919050565b600061138e82611363565b9050919050565b61139e81611383565b82525050565b600060608201905081810360008301526113be818661132a565b90506113cd6020830185611395565b6113da6040830184611073565b949350505050565b6113eb81611383565b81146113f657600080fd5b50565b600081359050611408816113e2565b92915050565b600060208284031215611424576114236110a7565b5b6000611432848285016113f9565b91505092915050565b60006040820190508181036000830152611455818561132a565b90506114646020830184611073565b9392505050565b600060208284031215611481576114806110a7565b5b600082013567ffffffffffffffff81111561149f5761149e6110ac565b5b6114ab848285016111f5565b91505092915050565b6000806000606084860312156114cd576114cc6110a7565b5b600084013567ffffffffffffffff8111156114eb576114ea6110ac565b5b6114f7868287016111f5565b935050602084013567ffffffffffffffff811115611518576115176110ac565b5b611524868287016111f5565b9250506040611535868287016110c8565b9150509250925092565b600081519050919050565b600082825260208201905092915050565b6000819050602082019050919050565b61157481611069565b82525050565b6000611586838361156b565b60208301905092915050565b6000602082019050919050565b60006115aa8261153f565b6115b4818561154a565b93506115bf8361155b565b8060005b838110156115f05781516115d7888261157a565b97506115e283611592565b9250506001810190506115c3565b5085935050505092915050565b60006020820190508181036000830152611617818461159f565b905092915050565b600060a0820190508181036000830152611639818861132a565b9050818103602083015261164d818761132a565b90508181036040830152611661818661132a565b90506116706060830185611395565b61167d6080830184611073565b9695505050505050565b6000819050919050565b61169a81611687565b82525050565b60006020820190506116b56000830184611691565b92915050565b60006116c682611363565b9050919050565b6116d6816116bb565b82525050565b600060a08201905081810360008301526116f6818861132a565b9050818103602083015261170a818761132a565b9050818103604083015261171e818661132a565b905061172d60608301856116cd565b61173a6080830184611073565b9695505050505050565b7f4e487b7100000000000000000000000000000000000000000000000000000000600052602260045260246000fd5b6000600282049050600182168061178b57607f821691505b60208210810361179e5761179d611744565b5b50919050565b7f4e616d652063616e6e6f7420626520656d707479000000000000000000000000600082015250565b60006117da6014836112e6565b91506117e5826117a4565b602082019050919050565b60006020820190508181036000830152611809816117cd565b9050919050565b7f5573657220616c72656164792072656769737465726564000000000000000000600082015250565b60006118466017836112e6565b915061185182611810565b602082019050919050565b6000602082019050818103600083015261187581611839565b9050919050565b7f4e487b7100000000000000000000000000000000000000000000000000000000600052601160045260246000fd5b60006118b682611069565b91507fffffffffffffffffffffffffffffffffffffffffffffffffffffffffffffffff82036118e8576118e761187c565b5b600182019050919050565b7f5469746c652063616e6e6f7420626520656d7074790000000000000000000000600082015250565b60006119296015836112e6565b9150611934826118f3565b602082019050919050565b600060208201905081810360008301526119588161191c565b9050919050565b7f436f6e74656e742063616e6e6f7420626520656d707479000000000000000000600082015250565b60006119956017836112e6565b91506119a08261195f565b602082019050919050565b600060208201905081810360008301526119c481611988565b9050919050565b7f55736572206d7573742062652072656769737465726564000000000000000000600082015250565b6000611a016017836112e6565b9150611a0c826119cb565b602082019050919050565b60006020820190508181036000830152611a30816119f4565b9050919050565b6000611a4282611069565b9150611a4d83611069565b925082821015611a6057611a5f61187c565b5b828203905092915050565b60008160601b9050919050565b6000611a8382611a6b565b9050919050565b6000611a9582611a78565b9050919050565b611aad611aa882611383565b611a8a565b82525050565b600081905092915050565b6000611ac9826112db565b611ad38185611ab3565b9350611ae38185602086016112f7565b80840191505092915050565b6000819050919050565b611b0a611b0582611069565b611aef565b82525050565b6000611b1c8287611a9c565b601482019150611b2c8286611abe565b9150611b388285611abe565b9150611b448284611af9565b60208201915081905095945050505050565b7f4e487b7100000000000000000000000000000000000000000000000000000000600052603260045260246000fdfea2646970667358221220e3131d047eac5c02af7a6d261ab9f04ac0c7586b2e6bb38fffe9d4fcd2edf2f464736f6c634300080d0033",
	"immutableReferences": {},
	"source": "// SPDX-License-Identifier: MIT\r\npragma solidity >=0.8.0 <0.9.0;\r\n\r\ncontract SocialMedia {\r\n    struct User {\r\n        string name;\r\n        uint256 articleNum;\r\n        mapping(uint256 => uint256) articles;\r\n    }\r\n    mapping(address => User) public users;\r\n    uint256 public userCount;\r\n\r\n    struct Article {\r\n        string username;\r\n        string title;\r\n        string content;\r\n        address payable author;\r\n        uint256 timestamp;\r\n        // uint commentsNum;\r\n        mapping(uint256 => Comment) comments;\r\n    }\r\n\r\n    uint256 public articleCount;\r\n    mapping(uint256 => Article) public articles;\r\n\r\n    struct Comment {\r\n        string content;\r\n        address author;\r\n    }\r\n\r\n    function registerUser(string memory _name) public {\r\n        require(bytes(_name).length > 0, \"Name cannot be empty\");\r\n        require(bytes(users[msg.sender].name).length == 0, \"User already registered\");\r\n        User storage newUser = users[msg.sender];\r\n\r\n        newUser.articleNum = 0;\r\n        newUser.name = _name; \r\n        userCount++;\r\n    }\r\n\r\n    // \r\n    mapping(uint256 => bytes32) public articleTransactionHashes;\r\n\r\n    function publish(\r\n        // string memory _username, // \r\n        string memory _title,\r\n        string memory _content,\r\n        uint256 _timestamp\r\n    ) public returns (uint256 articleId) {\r\n        // require(bytes(_username).length > 0, \"Username cannot be empty\");\r\n        require(bytes(_title).length > 0, \"Title cannot be empty\");\r\n        require(bytes(_content).length > 0, \"Content cannot be empty\");\r\n        require(bytes(users[msg.sender].name).length > 0, \"User must be registered\");\r\n\r\n        //  Article \r\n        Article storage newArticle = articles[articleCount++];\r\n        \r\n        //  Article \r\n        newArticle.username = users[msg.sender].name; // \r\n        newArticle.title = _title;\r\n        newArticle.content = _content;\r\n        newArticle.author = payable(msg.sender);\r\n        newArticle.timestamp = _timestamp; //  timestamp \r\n\r\n        // \r\n        users[msg.sender].articles[users[msg.sender].articleNum++] = articleCount - 1;\r\n        // \r\n        bytes32 txHash = keccak256(abi.encodePacked(msg.sender, _title, _content, _timestamp));\r\n        articleTransactionHashes[articleCount - 1] = txHash;\r\n\r\n        //  ID\r\n        return articleCount - 1;\r\n    }\r\n\r\n    function setArticle(\r\n        uint256 _articleId,\r\n        string memory _title,\r\n        string memory _content\r\n    ) public {\r\n        if (msg.sender != articles[_articleId].author) return;\r\n        articles[_articleId].title = _title;\r\n        articles[_articleId].content = _content;\r\n    }\r\n\r\n    function getUserInfo(address _address) \r\n        public \r\n        view \r\n        returns (\r\n            string memory username, \r\n            uint256 articleNum) \r\n    {\r\n        User storage _user = users[_address];\r\n        return (_user.name, _user.articleNum);\r\n    }\r\n\r\n    function getArticle(uint256 _articleId)\r\n        public\r\n        view\r\n        returns (\r\n            string memory username,\r\n            string memory title,\r\n            string memory content,\r\n            address author,\r\n            uint256 timestamp\r\n        )\r\n    {\r\n        \r\n        Article storage _article = articles[_articleId];\r\n        return (\r\n            _article.username,\r\n            _article.title,\r\n            _article.content,\r\n            _article.author,\r\n            _article.timestamp\r\n        );\r\n        \r\n    }\r\n\r\n    function getAllArticles() public view returns (uint256[] memory) {\r\n        uint256[] memory articleIds = new uint256[](articleCount);\r\n        for (uint256 i = 0; i < articleCount; i++) {\r\n            articleIds[i] = i;\r\n        }\r\n        return articleIds;\r\n    }\r\n\r\n    function getArticleSummary(uint256 _articleId)\r\n        public\r\n        view\r\n        returns (\r\n            string memory title,\r\n            address author,\r\n            uint256 timestamp\r\n        )\r\n    {\r\n        Article storage _article = articles[_articleId];\r\n        return (_article.title, _article.author, _article.timestamp);\r\n    } \r\n}\r\n",
	"sourcePath": "C:\\PF\\Web3\\truffle\\socialTruffle\\contracts\\SocialMedia.sol",
	"compiler": {
		"name": "solc",
		"version": "0.8.13+commit.abaa5c0e.Emscripten.clang"
	},
	"schemaVersion": "3.4.16",
	"updatedAt": "2024-05-08T03:50:49.047Z",
	"networkType": "ethereum",
	"devdoc": {
		"kind": "dev",
		"methods": {},
		"version": 1
	},
	"userdoc": {
		"kind": "user",
		"methods": {},
		"version": 1
	}
}